{
  "_format": "hh-sol-artifact-1",
  "contractName": "Marketplace",
  "sourceName": "contracts/Marketplace.sol",
  "abi": [
    {
      "inputs": [],
      "stateMutability": "nonpayable",
      "type": "constructor"
    },
    {
      "anonymous": false,
      "inputs": [
        {
          "indexed": true,
          "internalType": "uint256",
          "name": "marketItemId",
          "type": "uint256"
        },
        {
          "indexed": true,
          "internalType": "address",
          "name": "nftContract",
          "type": "address"
        },
        {
          "indexed": true,
          "internalType": "uint256",
          "name": "tokenId",
          "type": "uint256"
        },
        {
          "indexed": false,
          "internalType": "address",
          "name": "creator",
          "type": "address"
        },
        {
          "indexed": false,
          "internalType": "address",
          "name": "seller",
          "type": "address"
        },
        {
          "indexed": false,
          "internalType": "address",
          "name": "owner",
          "type": "address"
        },
        {
          "indexed": false,
          "internalType": "uint256",
          "name": "price",
          "type": "uint256"
        },
        {
          "indexed": false,
          "internalType": "bool",
          "name": "sold",
          "type": "bool"
        },
        {
          "indexed": false,
          "internalType": "bool",
          "name": "canceled",
          "type": "bool"
        }
      ],
      "name": "MarketItemCreated",
      "type": "event"
    },
    {
      "anonymous": false,
      "inputs": [
        {
          "indexed": true,
          "internalType": "uint256",
          "name": "marketItemId",
          "type": "uint256"
        },
        {
          "indexed": true,
          "internalType": "address",
          "name": "nftContract",
          "type": "address"
        },
        {
          "indexed": true,
          "internalType": "uint256",
          "name": "tokenId",
          "type": "uint256"
        },
        {
          "indexed": false,
          "internalType": "address",
          "name": "creator",
          "type": "address"
        },
        {
          "indexed": false,
          "internalType": "address",
          "name": "seller",
          "type": "address"
        },
        {
          "indexed": false,
          "internalType": "address",
          "name": "buyer",
          "type": "address"
        },
        {
          "indexed": false,
          "internalType": "uint256",
          "name": "price",
          "type": "uint256"
        },
        {
          "indexed": false,
          "internalType": "bool",
          "name": "sold",
          "type": "bool"
        },
        {
          "indexed": false,
          "internalType": "bool",
          "name": "canceled",
          "type": "bool"
        }
      ],
      "name": "MarketItemSold",
      "type": "event"
    },
    {
      "inputs": [
        {
          "internalType": "address",
          "name": "nftContractAddress",
          "type": "address"
        },
        {
          "internalType": "uint256",
          "name": "marketItemId",
          "type": "uint256"
        }
      ],
      "name": "cancelMarketItem",
      "outputs": [],
      "stateMutability": "payable",
      "type": "function"
    },
    {
      "inputs": [
        {
          "internalType": "address",
          "name": "nftContractAddress",
          "type": "address"
        },
        {
          "internalType": "uint256",
          "name": "tokenId",
          "type": "uint256"
        },
        {
          "internalType": "uint256",
          "name": "price",
          "type": "uint256"
        }
      ],
      "name": "createMarketItem",
      "outputs": [
        {
          "internalType": "uint256",
          "name": "",
          "type": "uint256"
        }
      ],
      "stateMutability": "payable",
      "type": "function"
    },
    {
      "inputs": [
        {
          "internalType": "address",
          "name": "nftContractAddress",
          "type": "address"
        },
        {
          "internalType": "uint256",
          "name": "marketItemId",
          "type": "uint256"
        }
      ],
      "name": "createMarketSale",
      "outputs": [],
      "stateMutability": "payable",
      "type": "function"
    },
    {
      "inputs": [],
      "name": "fetchAllMarketItems",
      "outputs": [
        {
          "components": [
            {
              "internalType": "uint256",
              "name": "marketItemId",
              "type": "uint256"
            },
            {
              "internalType": "address",
              "name": "nftContractAddress",
              "type": "address"
            },
            {
              "internalType": "uint256",
              "name": "tokenId",
              "type": "uint256"
            },
            {
              "internalType": "address payable",
              "name": "creator",
              "type": "address"
            },
            {
              "internalType": "address payable",
              "name": "seller",
              "type": "address"
            },
            {
              "internalType": "address payable",
              "name": "owner",
              "type": "address"
            },
            {
              "internalType": "uint256",
              "name": "price",
              "type": "uint256"
            },
            {
              "internalType": "bool",
              "name": "sold",
              "type": "bool"
            },
            {
              "internalType": "bool",
              "name": "canceled",
              "type": "bool"
            }
          ],
          "internalType": "struct Marketplace.MarketItem[]",
          "name": "",
          "type": "tuple[]"
        }
      ],
      "stateMutability": "view",
      "type": "function"
    },
    {
      "inputs": [],
      "name": "fetchAvailableMarketItems",
      "outputs": [
        {
          "components": [
            {
              "internalType": "uint256",
              "name": "marketItemId",
              "type": "uint256"
            },
            {
              "internalType": "address",
              "name": "nftContractAddress",
              "type": "address"
            },
            {
              "internalType": "uint256",
              "name": "tokenId",
              "type": "uint256"
            },
            {
              "internalType": "address payable",
              "name": "creator",
              "type": "address"
            },
            {
              "internalType": "address payable",
              "name": "seller",
              "type": "address"
            },
            {
              "internalType": "address payable",
              "name": "owner",
              "type": "address"
            },
            {
              "internalType": "uint256",
              "name": "price",
              "type": "uint256"
            },
            {
              "internalType": "bool",
              "name": "sold",
              "type": "bool"
            },
            {
              "internalType": "bool",
              "name": "canceled",
              "type": "bool"
            }
          ],
          "internalType": "struct Marketplace.MarketItem[]",
          "name": "",
          "type": "tuple[]"
        }
      ],
      "stateMutability": "view",
      "type": "function"
    },
    {
      "inputs": [
        {
          "internalType": "uint256",
          "name": "from",
          "type": "uint256"
        },
        {
          "internalType": "uint256",
          "name": "count",
          "type": "uint256"
        }
      ],
      "name": "fetchAvailableMarketItemsCustom",
      "outputs": [
        {
          "internalType": "uint256",
          "name": "",
          "type": "uint256"
        },
        {
          "internalType": "uint256",
          "name": "",
          "type": "uint256"
        },
        {
          "components": [
            {
              "internalType": "uint256",
              "name": "marketItemId",
              "type": "uint256"
            },
            {
              "internalType": "address",
              "name": "nftContractAddress",
              "type": "address"
            },
            {
              "internalType": "uint256",
              "name": "tokenId",
              "type": "uint256"
            },
            {
              "internalType": "address payable",
              "name": "creator",
              "type": "address"
            },
            {
              "internalType": "address payable",
              "name": "seller",
              "type": "address"
            },
            {
              "internalType": "address payable",
              "name": "owner",
              "type": "address"
            },
            {
              "internalType": "uint256",
              "name": "price",
              "type": "uint256"
            },
            {
              "internalType": "bool",
              "name": "sold",
              "type": "bool"
            },
            {
              "internalType": "bool",
              "name": "canceled",
              "type": "bool"
            }
          ],
          "internalType": "struct Marketplace.MarketItem[]",
          "name": "",
          "type": "tuple[]"
        }
      ],
      "stateMutability": "view",
      "type": "function"
    },
    {
      "inputs": [
        {
          "internalType": "uint256",
          "name": "marketItemId",
          "type": "uint256"
        }
      ],
      "name": "fetchMarketItemById",
      "outputs": [
        {
          "components": [
            {
              "internalType": "uint256",
              "name": "marketItemId",
              "type": "uint256"
            },
            {
              "internalType": "address",
              "name": "nftContractAddress",
              "type": "address"
            },
            {
              "internalType": "uint256",
              "name": "tokenId",
              "type": "uint256"
            },
            {
              "internalType": "address payable",
              "name": "creator",
              "type": "address"
            },
            {
              "internalType": "address payable",
              "name": "seller",
              "type": "address"
            },
            {
              "internalType": "address payable",
              "name": "owner",
              "type": "address"
            },
            {
              "internalType": "uint256",
              "name": "price",
              "type": "uint256"
            },
            {
              "internalType": "bool",
              "name": "sold",
              "type": "bool"
            },
            {
              "internalType": "bool",
              "name": "canceled",
              "type": "bool"
            }
          ],
          "internalType": "struct Marketplace.MarketItem",
          "name": "",
          "type": "tuple"
        }
      ],
      "stateMutability": "view",
      "type": "function"
    },
    {
      "inputs": [
        {
          "internalType": "string",
          "name": "_addressProperty",
          "type": "string"
        }
      ],
      "name": "fetchMarketItemsByAddressProperty",
      "outputs": [
        {
          "components": [
            {
              "internalType": "uint256",
              "name": "marketItemId",
              "type": "uint256"
            },
            {
              "internalType": "address",
              "name": "nftContractAddress",
              "type": "address"
            },
            {
              "internalType": "uint256",
              "name": "tokenId",
              "type": "uint256"
            },
            {
              "internalType": "address payable",
              "name": "creator",
              "type": "address"
            },
            {
              "internalType": "address payable",
              "name": "seller",
              "type": "address"
            },
            {
              "internalType": "address payable",
              "name": "owner",
              "type": "address"
            },
            {
              "internalType": "uint256",
              "name": "price",
              "type": "uint256"
            },
            {
              "internalType": "bool",
              "name": "sold",
              "type": "bool"
            },
            {
              "internalType": "bool",
              "name": "canceled",
              "type": "bool"
            }
          ],
          "internalType": "struct Marketplace.MarketItem[]",
          "name": "",
          "type": "tuple[]"
        }
      ],
      "stateMutability": "view",
      "type": "function"
    },
    {
      "inputs": [
        {
          "internalType": "uint256",
          "name": "from",
          "type": "uint256"
        },
        {
          "internalType": "uint256",
          "name": "count",
          "type": "uint256"
        }
      ],
      "name": "fetchMarketItemsCustom",
      "outputs": [
        {
          "internalType": "uint256",
          "name": "",
          "type": "uint256"
        },
        {
          "internalType": "uint256",
          "name": "",
          "type": "uint256"
        },
        {
          "components": [
            {
              "internalType": "uint256",
              "name": "marketItemId",
              "type": "uint256"
            },
            {
              "internalType": "address",
              "name": "nftContractAddress",
              "type": "address"
            },
            {
              "internalType": "uint256",
              "name": "tokenId",
              "type": "uint256"
            },
            {
              "internalType": "address payable",
              "name": "creator",
              "type": "address"
            },
            {
              "internalType": "address payable",
              "name": "seller",
              "type": "address"
            },
            {
              "internalType": "address payable",
              "name": "owner",
              "type": "address"
            },
            {
              "internalType": "uint256",
              "name": "price",
              "type": "uint256"
            },
            {
              "internalType": "bool",
              "name": "sold",
              "type": "bool"
            },
            {
              "internalType": "bool",
              "name": "canceled",
              "type": "bool"
            }
          ],
          "internalType": "struct Marketplace.MarketItem[]",
          "name": "",
          "type": "tuple[]"
        }
      ],
      "stateMutability": "view",
      "type": "function"
    },
    {
      "inputs": [],
      "name": "fetchOwnedMarketItems",
      "outputs": [
        {
          "components": [
            {
              "internalType": "uint256",
              "name": "marketItemId",
              "type": "uint256"
            },
            {
              "internalType": "address",
              "name": "nftContractAddress",
              "type": "address"
            },
            {
              "internalType": "uint256",
              "name": "tokenId",
              "type": "uint256"
            },
            {
              "internalType": "address payable",
              "name": "creator",
              "type": "address"
            },
            {
              "internalType": "address payable",
              "name": "seller",
              "type": "address"
            },
            {
              "internalType": "address payable",
              "name": "owner",
              "type": "address"
            },
            {
              "internalType": "uint256",
              "name": "price",
              "type": "uint256"
            },
            {
              "internalType": "bool",
              "name": "sold",
              "type": "bool"
            },
            {
              "internalType": "bool",
              "name": "canceled",
              "type": "bool"
            }
          ],
          "internalType": "struct Marketplace.MarketItem[]",
          "name": "",
          "type": "tuple[]"
        }
      ],
      "stateMutability": "view",
      "type": "function"
    },
    {
      "inputs": [],
      "name": "fetchSellingMarketItems",
      "outputs": [
        {
          "components": [
            {
              "internalType": "uint256",
              "name": "marketItemId",
              "type": "uint256"
            },
            {
              "internalType": "address",
              "name": "nftContractAddress",
              "type": "address"
            },
            {
              "internalType": "uint256",
              "name": "tokenId",
              "type": "uint256"
            },
            {
              "internalType": "address payable",
              "name": "creator",
              "type": "address"
            },
            {
              "internalType": "address payable",
              "name": "seller",
              "type": "address"
            },
            {
              "internalType": "address payable",
              "name": "owner",
              "type": "address"
            },
            {
              "internalType": "uint256",
              "name": "price",
              "type": "uint256"
            },
            {
              "internalType": "bool",
              "name": "sold",
              "type": "bool"
            },
            {
              "internalType": "bool",
              "name": "canceled",
              "type": "bool"
            }
          ],
          "internalType": "struct Marketplace.MarketItem[]",
          "name": "",
          "type": "tuple[]"
        }
      ],
      "stateMutability": "view",
      "type": "function"
    },
    {
      "inputs": [
        {
          "internalType": "uint256",
          "name": "tokenId",
          "type": "uint256"
        }
      ],
      "name": "getLatestMarketItemByTokenId",
      "outputs": [
        {
          "components": [
            {
              "internalType": "uint256",
              "name": "marketItemId",
              "type": "uint256"
            },
            {
              "internalType": "address",
              "name": "nftContractAddress",
              "type": "address"
            },
            {
              "internalType": "uint256",
              "name": "tokenId",
              "type": "uint256"
            },
            {
              "internalType": "address payable",
              "name": "creator",
              "type": "address"
            },
            {
              "internalType": "address payable",
              "name": "seller",
              "type": "address"
            },
            {
              "internalType": "address payable",
              "name": "owner",
              "type": "address"
            },
            {
              "internalType": "uint256",
              "name": "price",
              "type": "uint256"
            },
            {
              "internalType": "bool",
              "name": "sold",
              "type": "bool"
            },
            {
              "internalType": "bool",
              "name": "canceled",
              "type": "bool"
            }
          ],
          "internalType": "struct Marketplace.MarketItem",
          "name": "",
          "type": "tuple"
        },
        {
          "internalType": "bool",
          "name": "",
          "type": "bool"
        }
      ],
      "stateMutability": "view",
      "type": "function"
    },
    {
      "inputs": [],
      "name": "getListingFee",
      "outputs": [
        {
          "internalType": "uint256",
          "name": "",
          "type": "uint256"
        }
      ],
      "stateMutability": "view",
      "type": "function"
    }
  ],
  "bytecode": "0x608060405266470de4df82000060055534801561001b57600080fd5b50600160008190555033600460006101000a81548173ffffffffffffffffffffffffffffffffffffffff021916908373ffffffffffffffffffffffffffffffffffffffff160217905550613912806100746000396000f3fe6080604052600436106100c25760003560e01c80636f9b49201161007f578063b8fe6abe11610059578063b8fe6abe1461028d578063c23b139e146102b8578063cd90fdf4146102d4578063dfb6452b14610311576100c2565b80636f9b4920146101f6578063ad1477a914610234578063b3e3c42f14610271576100c2565b80630203c823146100c75780630c16d754146100f25780630e01c9691461013157806314eb7d611461015c5780634cf2a0691461019b57806358eb2df5146101c6575b600080fd5b3480156100d357600080fd5b506100dc61033c565b6040516100e9919061327c565b60405180910390f35b3480156100fe57600080fd5b5061011960048036038101906101149190612dad565b610381565b604051610128939291906133e0565b60405180910390f35b34801561013d57600080fd5b506101466106ad565b604051610153919061327c565b60405180910390f35b34801561016857600080fd5b50610183600480360381019061017e9190612dad565b610a0d565b604051610192939291906133e0565b60405180910390f35b3480156101a757600080fd5b506101b0611048565b6040516101bd919061327c565b60405180910390f35b6101e060048036038101906101db9190612cf4565b61108d565b6040516101ed91906133c5565b60405180910390f35b34801561020257600080fd5b5061021d60048036038101906102189190612d84565b6114d4565b60405161022b92919061339a565b60405180910390f35b34801561024057600080fd5b5061025b60048036038101906102569190612d84565b611714565b604051610268919061337e565b60405180910390f35b61028b60048036038101906102869190612cb8565b61194c565b005b34801561029957600080fd5b506102a2611ba6565b6040516102af91906133c5565b60405180910390f35b6102d260048036038101906102cd9190612cb8565b611bb0565b005b3480156102e057600080fd5b506102fb60048036038101906102f69190612d43565b611ec6565b604051610308919061327c565b60405180910390f35b34801561031d57600080fd5b506103266126cc565b604051610333919061327c565b60405180910390f35b606061037c6040518060400160405280600581526020017f6f776e6572000000000000000000000000000000000000000000000000000000815250611ec6565b905090565b6000806060600061039260016129a2565b9050600085876103a291906134d4565b82116103ae57816103bb565b85876103ba91906134d4565b5b9050600087826103cb919061352a565b905060008167ffffffffffffffff81111561040f577f4e487b7100000000000000000000000000000000000000000000000000000000600052604160045260246000fd5b60405190808252806020026020018201604052801561044857816020015b610435612b40565b81526020019060019003908161042d5790505b50905060008990505b838110156106985760006006600060018461046c91906134d4565b815260200190815260200160002060405180610120016040529081600082015481526020016001820160009054906101000a900473ffffffffffffffffffffffffffffffffffffffff1673ffffffffffffffffffffffffffffffffffffffff1673ffffffffffffffffffffffffffffffffffffffff168152602001600282015481526020016003820160009054906101000a900473ffffffffffffffffffffffffffffffffffffffff1673ffffffffffffffffffffffffffffffffffffffff1673ffffffffffffffffffffffffffffffffffffffff1681526020016004820160009054906101000a900473ffffffffffffffffffffffffffffffffffffffff1673ffffffffffffffffffffffffffffffffffffffff1673ffffffffffffffffffffffffffffffffffffffff1681526020016005820160009054906101000a900473ffffffffffffffffffffffffffffffffffffffff1673ffffffffffffffffffffffffffffffffffffffff1673ffffffffffffffffffffffffffffffffffffffff168152602001600682015481526020016007820160009054906101000a900460ff161515151581526020016007820160019054906101000a900460ff161515151581525050905080838c84610642919061352a565b81518110610679577f4e487b7100000000000000000000000000000000000000000000000000000000600052603260045260246000fd5b60200260200101819052505080806106909061368b565b915050610451565b50838382965096509650505050509250925092565b606060006106bb60016129a2565b905060006106c960026129a2565b905060006106d760036129a2565b905060008183856106e8919061352a565b6106f2919061352a565b905060008167ffffffffffffffff811115610736577f4e487b7100000000000000000000000000000000000000000000000000000000600052604160045260246000fd5b60405190808252806020026020018201604052801561076f57816020015b61075c612b40565b8152602001906001900390816107545790505b5090506000805b86811015610a005760006006600060018461079191906134d4565b815260200190815260200160002060405180610120016040529081600082015481526020016001820160009054906101000a900473ffffffffffffffffffffffffffffffffffffffff1673ffffffffffffffffffffffffffffffffffffffff1673ffffffffffffffffffffffffffffffffffffffff168152602001600282015481526020016003820160009054906101000a900473ffffffffffffffffffffffffffffffffffffffff1673ffffffffffffffffffffffffffffffffffffffff1673ffffffffffffffffffffffffffffffffffffffff1681526020016004820160009054906101000a900473ffffffffffffffffffffffffffffffffffffffff1673ffffffffffffffffffffffffffffffffffffffff1673ffffffffffffffffffffffffffffffffffffffff1681526020016005820160009054906101000a900473ffffffffffffffffffffffffffffffffffffffff1673ffffffffffffffffffffffffffffffffffffffff1673ffffffffffffffffffffffffffffffffffffffff168152602001600682015481526020016007820160009054906101000a900460ff161515151581526020016007820160019054906101000a900460ff1615151515815250509050600073ffffffffffffffffffffffffffffffffffffffff168160a0015173ffffffffffffffffffffffffffffffffffffffff161461099757506109ed565b808484815181106109d1577f4e487b7100000000000000000000000000000000000000000000000000000000600052603260045260246000fd5b60200260200101819052506001836109e991906134d4565b9250505b80806109f89061368b565b915050610776565b5081965050505050505090565b60008060606000610a1e60016129a2565b90506000808790508790505b82811015610c8957600060066000600184610a4591906134d4565b815260200190815260200160002060405180610120016040529081600082015481526020016001820160009054906101000a900473ffffffffffffffffffffffffffffffffffffffff1673ffffffffffffffffffffffffffffffffffffffff1673ffffffffffffffffffffffffffffffffffffffff168152602001600282015481526020016003820160009054906101000a900473ffffffffffffffffffffffffffffffffffffffff1673ffffffffffffffffffffffffffffffffffffffff1673ffffffffffffffffffffffffffffffffffffffff1681526020016004820160009054906101000a900473ffffffffffffffffffffffffffffffffffffffff1673ffffffffffffffffffffffffffffffffffffffff1673ffffffffffffffffffffffffffffffffffffffff1681526020016005820160009054906101000a900473ffffffffffffffffffffffffffffffffffffffff1673ffffffffffffffffffffffffffffffffffffffff1673ffffffffffffffffffffffffffffffffffffffff168152602001600682015481526020016007820160009054906101000a900460ff161515151581526020016007820160019054906101000a900460ff1615151515815250509050600073ffffffffffffffffffffffffffffffffffffffff168160a0015173ffffffffffffffffffffffffffffffffffffffff1614610c4b5750610c76565b8280610c569061368b565b935050878310610c74578180610c6b9061368b565b92505050610c89565b505b8080610c819061368b565b915050610a2a565b60008190506000831415610d23578381600067ffffffffffffffff811115610cda577f4e487b7100000000000000000000000000000000000000000000000000000000600052604160045260246000fd5b604051908082528060200260200182016040528015610d1357816020015b610d00612b40565b815260200190600190039081610cf85790505b5096509650965050505050611041565b60008367ffffffffffffffff811115610d65577f4e487b7100000000000000000000000000000000000000000000000000000000600052604160045260246000fd5b604051908082528060200260200182016040528015610d9e57816020015b610d8b612b40565b815260200190600190039081610d835790505b50905060008a93505b8284101561103157600060066000600187610dc291906134d4565b815260200190815260200160002060405180610120016040529081600082015481526020016001820160009054906101000a900473ffffffffffffffffffffffffffffffffffffffff1673ffffffffffffffffffffffffffffffffffffffff1673ffffffffffffffffffffffffffffffffffffffff168152602001600282015481526020016003820160009054906101000a900473ffffffffffffffffffffffffffffffffffffffff1673ffffffffffffffffffffffffffffffffffffffff1673ffffffffffffffffffffffffffffffffffffffff1681526020016004820160009054906101000a900473ffffffffffffffffffffffffffffffffffffffff1673ffffffffffffffffffffffffffffffffffffffff1673ffffffffffffffffffffffffffffffffffffffff1681526020016005820160009054906101000a900473ffffffffffffffffffffffffffffffffffffffff1673ffffffffffffffffffffffffffffffffffffffff1673ffffffffffffffffffffffffffffffffffffffff168152602001600682015481526020016007820160009054906101000a900460ff161515151581526020016007820160019054906101000a900460ff1615151515815250509050600073ffffffffffffffffffffffffffffffffffffffff168160a0015173ffffffffffffffffffffffffffffffffffffffff1614610fc8575061101e565b80838381518110611002577f4e487b7100000000000000000000000000000000000000000000000000000000600052603260045260246000fd5b602002602001018190525060018261101a91906134d4565b9150505b83806110299061368b565b945050610da7565b8583839850985098505050505050505b9250925092565b60606110886040518060400160405280600681526020017f73656c6c65720000000000000000000000000000000000000000000000000000815250611ec6565b905090565b6000600260005414156110d5576040517f08c379a00000000000000000000000000000000000000000000000000000000081526004016110cc9061333e565b60405180910390fd5b600260008190555060008211611120576040517f08c379a00000000000000000000000000000000000000000000000000000000081526004016111179061335e565b60405180910390fd5b61112a60016129b0565b600061113660016129a2565b905060008573ffffffffffffffffffffffffffffffffffffffff1663867d3397866040518263ffffffff1660e01b815260040161117391906133c5565b60206040518083038186803b15801561118b57600080fd5b505afa15801561119f573d6000803e3d6000fd5b505050506040513d601f19601f820116820180604052508101906111c39190612c8f565b90506040518061012001604052808381526020018773ffffffffffffffffffffffffffffffffffffffff1681526020018681526020018273ffffffffffffffffffffffffffffffffffffffff1681526020013373ffffffffffffffffffffffffffffffffffffffff168152602001600073ffffffffffffffffffffffffffffffffffffffff16815260200185815260200160001515815260200160001515815250600660008481526020019081526020016000206000820151816000015560208201518160010160006101000a81548173ffffffffffffffffffffffffffffffffffffffff021916908373ffffffffffffffffffffffffffffffffffffffff1602179055506040820151816002015560608201518160030160006101000a81548173ffffffffffffffffffffffffffffffffffffffff021916908373ffffffffffffffffffffffffffffffffffffffff16021790555060808201518160040160006101000a81548173ffffffffffffffffffffffffffffffffffffffff021916908373ffffffffffffffffffffffffffffffffffffffff16021790555060a08201518160050160006101000a81548173ffffffffffffffffffffffffffffffffffffffff021916908373ffffffffffffffffffffffffffffffffffffffff16021790555060c0820151816006015560e08201518160070160006101000a81548160ff0219169083151502179055506101008201518160070160016101000a81548160ff0219169083151502179055509050508573ffffffffffffffffffffffffffffffffffffffff166323b872dd3330886040518463ffffffff1660e01b815260040161143293929190613245565b600060405180830381600087803b15801561144c57600080fd5b505af1158015611460573d6000803e3d6000fd5b50505050848673ffffffffffffffffffffffffffffffffffffffff16837fa3b15201f5409f14cce6233dc60972278c313ff3ddbdee57ff092c0e95313526843360008a6000806040516114b896959493929190613183565b60405180910390a4819250505060016000819055509392505050565b6114dc612b40565b6000806114e960016129a2565b905060008190505b60008111156116fc5760006006600083815260200190815260200160002060405180610120016040529081600082015481526020016001820160009054906101000a900473ffffffffffffffffffffffffffffffffffffffff1673ffffffffffffffffffffffffffffffffffffffff1673ffffffffffffffffffffffffffffffffffffffff168152602001600282015481526020016003820160009054906101000a900473ffffffffffffffffffffffffffffffffffffffff1673ffffffffffffffffffffffffffffffffffffffff1673ffffffffffffffffffffffffffffffffffffffff1681526020016004820160009054906101000a900473ffffffffffffffffffffffffffffffffffffffff1673ffffffffffffffffffffffffffffffffffffffff1673ffffffffffffffffffffffffffffffffffffffff1681526020016005820160009054906101000a900473ffffffffffffffffffffffffffffffffffffffff1673ffffffffffffffffffffffffffffffffffffffff1673ffffffffffffffffffffffffffffffffffffffff168152602001600682015481526020016007820160009054906101000a900460ff161515151581526020016007820160019054906101000a900460ff1615151515815250509050858160400151146116da57506116e9565b8060019450945050505061170f565b80806116f490613630565b9150506114f1565b50611705612b40565b8060009350935050505b915091565b61171c612b40565b600061172860016129a2565b905060008311801561173a5750808311155b611779576040517f08c379a00000000000000000000000000000000000000000000000000000000081526004016117709061331e565b60405180910390fd5b6006600084815260200190815260200160002060405180610120016040529081600082015481526020016001820160009054906101000a900473ffffffffffffffffffffffffffffffffffffffff1673ffffffffffffffffffffffffffffffffffffffff1673ffffffffffffffffffffffffffffffffffffffff168152602001600282015481526020016003820160009054906101000a900473ffffffffffffffffffffffffffffffffffffffff1673ffffffffffffffffffffffffffffffffffffffff1673ffffffffffffffffffffffffffffffffffffffff1681526020016004820160009054906101000a900473ffffffffffffffffffffffffffffffffffffffff1673ffffffffffffffffffffffffffffffffffffffff1673ffffffffffffffffffffffffffffffffffffffff1681526020016005820160009054906101000a900473ffffffffffffffffffffffffffffffffffffffff1673ffffffffffffffffffffffffffffffffffffffff1673ffffffffffffffffffffffffffffffffffffffff168152602001600682015481526020016007820160009054906101000a900460ff161515151581526020016007820160019054906101000a900460ff161515151581525050915050919050565b60026000541415611992576040517f08c379a00000000000000000000000000000000000000000000000000000000081526004016119899061333e565b60405180910390fd5b6002600081905550600060066000838152602001908152602001600020600201549050600081116119f8576040517f08c379a00000000000000000000000000000000000000000000000000000000081526004016119ef9061329e565b60405180910390fd5b3373ffffffffffffffffffffffffffffffffffffffff166006600084815260200190815260200160002060040160009054906101000a900473ffffffffffffffffffffffffffffffffffffffff1673ffffffffffffffffffffffffffffffffffffffff1614611a9c576040517f08c379a0000000000000000000000000000000000000000000000000000000008152600401611a93906132fe565b60405180910390fd5b8273ffffffffffffffffffffffffffffffffffffffff166323b872dd3033846040518463ffffffff1660e01b8152600401611ad993929190613245565b600060405180830381600087803b158015611af357600080fd5b505af1158015611b07573d6000803e3d6000fd5b50505050336006600084815260200190815260200160002060050160006101000a81548173ffffffffffffffffffffffffffffffffffffffff021916908373ffffffffffffffffffffffffffffffffffffffff16021790555060016006600084815260200190815260200160002060070160016101000a81548160ff021916908315150217905550611b9960036129b0565b5060016000819055505050565b6000600554905090565b60026000541415611bf6576040517f08c379a0000000000000000000000000000000000000000000000000000000008152600401611bed9061333e565b60405180910390fd5b6002600081905550600060066000838152602001908152602001600020600601549050600060066000848152602001908152602001600020600201549050813414611c76576040517f08c379a0000000000000000000000000000000000000000000000000000000008152600401611c6d906132be565b60405180910390fd5b336006600085815260200190815260200160002060050160006101000a81548173ffffffffffffffffffffffffffffffffffffffff021916908373ffffffffffffffffffffffffffffffffffffffff16021790555060016006600085815260200190815260200160002060070160006101000a81548160ff0219169083151502179055506006600084815260200190815260200160002060040160009054906101000a900473ffffffffffffffffffffffffffffffffffffffff1673ffffffffffffffffffffffffffffffffffffffff166108fc349081150290604051600060405180830381858888f19350505050158015611d76573d6000803e3d6000fd5b508373ffffffffffffffffffffffffffffffffffffffff166323b872dd3033846040518463ffffffff1660e01b8152600401611db493929190613245565b600060405180830381600087803b158015611dce57600080fd5b505af1158015611de2573d6000803e3d6000fd5b50505050611df060026129b0565b808473ffffffffffffffffffffffffffffffffffffffff16847f803569a133313a21f841b500261ca01cef4b800edb6c1c7448fc6ad31f240a506006600088815260200190815260200160002060030160009054906101000a900473ffffffffffffffffffffffffffffffffffffffff166006600089815260200190815260200160002060040160009054906101000a900473ffffffffffffffffffffffffffffffffffffffff16338860016000604051611eb0969594939291906131e4565b60405180910390a4505060016000819055505050565b6060611f07826040518060400160405280600681526020017f73656c6c657200000000000000000000000000000000000000000000000000008152506129c6565b80611f4d5750611f4c826040518060400160405280600581526020017f6f776e65720000000000000000000000000000000000000000000000000000008152506129c6565b5b611f8c576040517f08c379a0000000000000000000000000000000000000000000000000000000008152600401611f83906132de565b60405180910390fd5b6000611f9860016129a2565b905060008060005b838110156121f057600060066000600184611fbb91906134d4565b81526020019081526020016000209050600061218f8260405180610120016040529081600082015481526020016001820160009054906101000a900473ffffffffffffffffffffffffffffffffffffffff1673ffffffffffffffffffffffffffffffffffffffff1673ffffffffffffffffffffffffffffffffffffffff168152602001600282015481526020016003820160009054906101000a900473ffffffffffffffffffffffffffffffffffffffff1673ffffffffffffffffffffffffffffffffffffffff1673ffffffffffffffffffffffffffffffffffffffff1681526020016004820160009054906101000a900473ffffffffffffffffffffffffffffffffffffffff1673ffffffffffffffffffffffffffffffffffffffff1673ffffffffffffffffffffffffffffffffffffffff1681526020016005820160009054906101000a900473ffffffffffffffffffffffffffffffffffffffff1673ffffffffffffffffffffffffffffffffffffffff1673ffffffffffffffffffffffffffffffffffffffff168152602001600682015481526020016007820160009054906101000a900460ff161515151581526020016007820160019054906101000a900460ff16151515158152505089612a1f565b90503373ffffffffffffffffffffffffffffffffffffffff168173ffffffffffffffffffffffffffffffffffffffff16146121cb5750506121dd565b6001856121d891906134d4565b945050505b80806121e89061368b565b915050611fa0565b5060008267ffffffffffffffff811115612233577f4e487b7100000000000000000000000000000000000000000000000000000000600052604160045260246000fd5b60405190808252806020026020018201604052801561226c57816020015b612259612b40565b8152602001906001900390816122515790505b50905060005b848110156126bf5760006006600060018461228d91906134d4565b8152602001908152602001600020905060006124618260405180610120016040529081600082015481526020016001820160009054906101000a900473ffffffffffffffffffffffffffffffffffffffff1673ffffffffffffffffffffffffffffffffffffffff1673ffffffffffffffffffffffffffffffffffffffff168152602001600282015481526020016003820160009054906101000a900473ffffffffffffffffffffffffffffffffffffffff1673ffffffffffffffffffffffffffffffffffffffff1673ffffffffffffffffffffffffffffffffffffffff1681526020016004820160009054906101000a900473ffffffffffffffffffffffffffffffffffffffff1673ffffffffffffffffffffffffffffffffffffffff1673ffffffffffffffffffffffffffffffffffffffff1681526020016005820160009054906101000a900473ffffffffffffffffffffffffffffffffffffffff1673ffffffffffffffffffffffffffffffffffffffff1673ffffffffffffffffffffffffffffffffffffffff168152602001600682015481526020016007820160009054906101000a900460ff161515151581526020016007820160019054906101000a900460ff1615151515815250508a612a1f565b90503373ffffffffffffffffffffffffffffffffffffffff168173ffffffffffffffffffffffffffffffffffffffff161461249d5750506126ac565b8160405180610120016040529081600082015481526020016001820160009054906101000a900473ffffffffffffffffffffffffffffffffffffffff1673ffffffffffffffffffffffffffffffffffffffff1673ffffffffffffffffffffffffffffffffffffffff168152602001600282015481526020016003820160009054906101000a900473ffffffffffffffffffffffffffffffffffffffff1673ffffffffffffffffffffffffffffffffffffffff1673ffffffffffffffffffffffffffffffffffffffff1681526020016004820160009054906101000a900473ffffffffffffffffffffffffffffffffffffffff1673ffffffffffffffffffffffffffffffffffffffff1673ffffffffffffffffffffffffffffffffffffffff1681526020016005820160009054906101000a900473ffffffffffffffffffffffffffffffffffffffff1673ffffffffffffffffffffffffffffffffffffffff1673ffffffffffffffffffffffffffffffffffffffff168152602001600682015481526020016007820160009054906101000a900460ff161515151581526020016007820160019054906101000a900460ff16151515158152505084868151811061268f577f4e487b7100000000000000000000000000000000000000000000000000000000600052603260045260246000fd5b60200260200101819052506001856126a791906134d4565b945050505b80806126b79061368b565b915050612272565b5080945050505050919050565b606060006126da60016129a2565b905060008167ffffffffffffffff81111561271e577f4e487b7100000000000000000000000000000000000000000000000000000000600052604160045260246000fd5b60405190808252806020026020018201604052801561275757816020015b612744612b40565b81526020019060019003908161273c5790505b50905060005b828110156129995760006006600060018461277891906134d4565b815260200190815260200160002060405180610120016040529081600082015481526020016001820160009054906101000a900473ffffffffffffffffffffffffffffffffffffffff1673ffffffffffffffffffffffffffffffffffffffff1673ffffffffffffffffffffffffffffffffffffffff168152602001600282015481526020016003820160009054906101000a900473ffffffffffffffffffffffffffffffffffffffff1673ffffffffffffffffffffffffffffffffffffffff1673ffffffffffffffffffffffffffffffffffffffff1681526020016004820160009054906101000a900473ffffffffffffffffffffffffffffffffffffffff1673ffffffffffffffffffffffffffffffffffffffff1673ffffffffffffffffffffffffffffffffffffffff1681526020016005820160009054906101000a900473ffffffffffffffffffffffffffffffffffffffff1673ffffffffffffffffffffffffffffffffffffffff1673ffffffffffffffffffffffffffffffffffffffff168152602001600682015481526020016007820160009054906101000a900460ff161515151581526020016007820160019054906101000a900460ff16151515158152505090508083838151811061297a577f4e487b7100000000000000000000000000000000000000000000000000000000600052603260045260246000fd5b60200260200101819052505080806129919061368b565b91505061275d565b50809250505090565b600081600001549050919050565b6001816000016000828254019250508190555050565b6000816040516020016129d9919061316c565b6040516020818303038152906040528051906020012083604051602001612a00919061316c565b6040516020818303038152906040528051906020012014905092915050565b6000612a60826040518060400160405280600681526020017f73656c6c657200000000000000000000000000000000000000000000000000008152506129c6565b80612aa65750612aa5826040518060400160405280600581526020017f6f776e65720000000000000000000000000000000000000000000000000000008152506129c6565b5b612ae5576040517f08c379a0000000000000000000000000000000000000000000000000000000008152600401612adc906132de565b60405180910390fd5b612b24826040518060400160405280600681526020017f73656c6c657200000000000000000000000000000000000000000000000000008152506129c6565b612b32578260a00151612b38565b82608001515b905092915050565b60405180610120016040528060008152602001600073ffffffffffffffffffffffffffffffffffffffff16815260200160008152602001600073ffffffffffffffffffffffffffffffffffffffff168152602001600073ffffffffffffffffffffffffffffffffffffffff168152602001600073ffffffffffffffffffffffffffffffffffffffff168152602001600081526020016000151581526020016000151581525090565b6000612bfb612bf684613443565b61341e565b905082815260208101848484011115612c1357600080fd5b612c1e8482856135ee565b509392505050565b600081359050612c35816138ae565b92915050565b600081519050612c4a816138ae565b92915050565b600082601f830112612c6157600080fd5b8135612c71848260208601612be8565b91505092915050565b600081359050612c89816138c5565b92915050565b600060208284031215612ca157600080fd5b6000612caf84828501612c3b565b91505092915050565b60008060408385031215612ccb57600080fd5b6000612cd985828601612c26565b9250506020612cea85828601612c7a565b9150509250929050565b600080600060608486031215612d0957600080fd5b6000612d1786828701612c26565b9350506020612d2886828701612c7a565b9250506040612d3986828701612c7a565b9150509250925092565b600060208284031215612d5557600080fd5b600082013567ffffffffffffffff811115612d6f57600080fd5b612d7b84828501612c50565b91505092915050565b600060208284031215612d9657600080fd5b6000612da484828501612c7a565b91505092915050565b60008060408385031215612dc057600080fd5b6000612dce85828601612c7a565b9250506020612ddf85828601612c7a565b9150509250929050565b6000612df58383612fe0565b6101208301905092915050565b612e0b816135b8565b82525050565b612e1a81613570565b82525050565b612e298161355e565b82525050565b612e388161355e565b82525050565b6000612e4982613484565b612e5381856134a7565b9350612e5e83613474565b8060005b83811015612e8f578151612e768882612de9565b9750612e818361349a565b925050600181019050612e62565b5085935050505092915050565b612ea581613582565b82525050565b612eb481613582565b82525050565b6000612ec58261348f565b612ecf81856134c9565b9350612edf8185602086016135fd565b80840191505092915050565b6000612ef86018836134b8565b9150612f0382613743565b602082019050919050565b6000612f1b6033836134b8565b9150612f268261376c565b604082019050919050565b6000612f3e6025836134b8565b9150612f49826137bb565b604082019050919050565b6000612f616016836134b8565b9150612f6c8261380a565b602082019050919050565b6000612f846010836134b8565b9150612f8f82613833565b602082019050919050565b6000612fa7601f836134b8565b9150612fb28261385c565b602082019050919050565b6000612fca601c836134b8565b9150612fd582613885565b602082019050919050565b61012082016000820151612ff7600085018261314e565b50602082015161300a6020850182612e20565b50604082015161301d604085018261314e565b5060608201516130306060850182612e11565b5060808201516130436080850182612e11565b5060a082015161305660a0850182612e11565b5060c082015161306960c085018261314e565b5060e082015161307c60e0850182612e9c565b50610100820151613091610100850182612e9c565b50505050565b610120820160008201516130ae600085018261314e565b5060208201516130c16020850182612e20565b5060408201516130d4604085018261314e565b5060608201516130e76060850182612e11565b5060808201516130fa6080850182612e11565b5060a082015161310d60a0850182612e11565b5060c082015161312060c085018261314e565b5060e082015161313360e0850182612e9c565b50610100820151613148610100850182612e9c565b50505050565b613157816135ae565b82525050565b613166816135ae565b82525050565b60006131788284612eba565b915081905092915050565b600060c0820190506131986000830189612e02565b6131a56020830188612e02565b6131b26040830187612e02565b6131bf606083018661315d565b6131cc6080830185612eab565b6131d960a0830184612eab565b979650505050505050565b600060c0820190506131f96000830189612e02565b6132066020830188612e02565b6132136040830187612e2f565b613220606083018661315d565b61322d6080830185612eab565b61323a60a0830184612eab565b979650505050505050565b600060608201905061325a6000830186612e2f565b6132676020830185612e2f565b613274604083018461315d565b949350505050565b600060208201905081810360008301526132968184612e3e565b905092915050565b600060208201905081810360008301526132b781612eeb565b9050919050565b600060208201905081810360008301526132d781612f0e565b9050919050565b600060208201905081810360008301526132f781612f31565b9050919050565b6000602082019050818103600083015261331781612f54565b9050919050565b6000602082019050818103600083015261333781612f77565b9050919050565b6000602082019050818103600083015261335781612f9a565b9050919050565b6000602082019050818103600083015261337781612fbd565b9050919050565b6000610120820190506133946000830184613097565b92915050565b6000610140820190506133b06000830185613097565b6133be610120830184612eab565b9392505050565b60006020820190506133da600083018461315d565b92915050565b60006060820190506133f5600083018661315d565b613402602083018561315d565b81810360408301526134148184612e3e565b9050949350505050565b6000613428613439565b9050613434828261365a565b919050565b6000604051905090565b600067ffffffffffffffff82111561345e5761345d613703565b5b61346782613732565b9050602081019050919050565b6000819050602082019050919050565b600081519050919050565b600081519050919050565b6000602082019050919050565b600082825260208201905092915050565b600082825260208201905092915050565b600081905092915050565b60006134df826135ae565b91506134ea836135ae565b9250827fffffffffffffffffffffffffffffffffffffffffffffffffffffffffffffffff0382111561351f5761351e6136d4565b5b828201905092915050565b6000613535826135ae565b9150613540836135ae565b925082821015613553576135526136d4565b5b828203905092915050565b60006135698261358e565b9050919050565b600061357b8261358e565b9050919050565b60008115159050919050565b600073ffffffffffffffffffffffffffffffffffffffff82169050919050565b6000819050919050565b60006135c3826135ca565b9050919050565b60006135d5826135dc565b9050919050565b60006135e78261358e565b9050919050565b82818337600083830152505050565b60005b8381101561361b578082015181840152602081019050613600565b8381111561362a576000848401525b50505050565b600061363b826135ae565b9150600082141561364f5761364e6136d4565b5b600182039050919050565b61366382613732565b810181811067ffffffffffffffff8211171561368257613681613703565b5b80604052505050565b6000613696826135ae565b91507fffffffffffffffffffffffffffffffffffffffffffffffffffffffffffffffff8214156136c9576136c86136d4565b5b600182019050919050565b7f4e487b7100000000000000000000000000000000000000000000000000000000600052601160045260246000fd5b7f4e487b7100000000000000000000000000000000000000000000000000000000600052604160045260246000fd5b6000601f19601f8301169050919050565b7f4d61726b6574206974656d2068617320746f2065786973740000000000000000600082015250565b7f506c65617365207375626d6974207468652061736b696e67207072696365206960008201527f6e206f7264657220746f20636f6e74696e756500000000000000000000000000602082015250565b7f506172616d65746572206d757374206265202773656c6c657227206f7220276f60008201527f776e657227000000000000000000000000000000000000000000000000000000602082015250565b7f596f7520617265206e6f74207468652073656c6c657200000000000000000000600082015250565b7f4d7573742062652076616c696420696400000000000000000000000000000000600082015250565b7f5265656e7472616e637947756172643a207265656e7472616e742063616c6c00600082015250565b7f5072696365206d757374206265206174206c6561737420312077656900000000600082015250565b6138b78161355e565b81146138c257600080fd5b50565b6138ce816135ae565b81146138d957600080fd5b5056fea2646970667358221220171cc212db237f0ca0462ac7d30f09adc1abf0dcb2033e37fbf45d3861cdcc1264736f6c63430008040033",
  "linkReferences": {},
  "deployedLinkReferences": {}
}